:020000040800F2
:10000000C81100204D010008C1100008DD0F0008D4
:1000100000000000000000000000000000000000E0
:100020000000000000000000000000003D1100087A
:1000300000000000000000000B010008C9110008CA
:100040005F0100085F0100085F0100085F01000810
:100050005F0100085F0100085F0100085F01000800
:100060005F0100085F0100085F0100085F010008F0
:100070005F0100085F0100085F0100085F010008E0
:100080005F0100085F0100085F0100085F010008D0
:100090005F0100085F0100085F0100085F010008C0
:1000A0005F0100085F0100085F0100085F010008B0
:1000B0005F0100085F0100085F0100085F010008A0
:1000C0000348854600F078F80048004755170008B7
:1000D000C8110020084B19680868203080F309888F
:1000E000022080F31488BFF36F8F3FBCAE4608BC7C
:1000F00004BC62B6184700001C000020EFF310801B
:1001000072B6704780F310887047EFF309800E4B8A
:100110001A6820381060F0C044464D4656465F4687
:10012000F0C008B572B601F041FF62B60CBC1168B0
:1001300008681030F0C8A046A946B246BB4680F316
:1001400009882038F0C818471C0000200448804760
:1001500004480047FEE7FEE7FEE7FEE7FEE7FEE7AE
:1001600055120008C100000830B50B4601460020BA
:100170002022012409E00D46D5409D4205D31D46AD
:100180009540491B2546954040191546521E002DA5
:10019000F1DC30BD03460B439B0703D009E008C9DF
:1001A000121F08C0042AFAD203E00B780370401C27
:1001B000491C521EF9D27047064C0125064E05E037
:1001C000E36807CC2B430C3C98471034B442F7D378
:1001D000FFF77AFF98230008B823000830B50446DB
:1001E0000321204601F094FA05462812E07025719B
:1001F00030BD000078B50346002200240020E3E073
:10020000012696400D6835402C46002C7ED04D6866
:10021000022D02D04D68122D15D1D508AE001D4615
:100220002035A8595507EE0E0F25B5400646AE43BA
:1002300030465607F60E0D69B5402843D508AD0087
:100240001E4620367051186856000325B5400646F4
:10025000AE4330460D79AD07AD0F5600B54028438B
:1002600018604D68012D08D04D68022D05D04D68ED
:10027000112D02D04D68122D18D198685600032513
:10028000B5400646AE4330465600CD68B5402843DB
:1002900098605868012595400646AE4330461026C2
:1002A0004D6835402D09954028435860D868560060
:1002B0000325B5400646AE43304656008D68B5402E
:1002C0002843D860012636074D683540B5427AD1BB
:1002D00000BF404DAD69012635433E4EB561354600
:1002E000AD69ED07ED0F009500BF00BF3A4D9608D0
:1002F000B600A85995072E0F0F25B5400646AE4308
:1003000030460925ED06AB4203D100E05BE0002555
:1003100014E0324DAB4201D101250FE0304DAB422C
:1003200001D102250AE02F4DAB4201D1032505E0A2
:100330002D4DAB4201D1042500E005259607360F6F
:10034000B5402843244D9608B600A851274D28688B
:100350000546A5432846012636044D683540B5427A
:1003600002D1054625432846204D28606868054689
:10037000A5432846012676044D683540B54202D192
:10038000054625432846194D6860A8680546A543DB
:100390002846012636054D683540B54202D105464E
:1003A00025432846114DA860E8680546A543284620
:1003B000012676054D683540B54202D105462543F4
:1003C00028460A4DE860521C0D68D540002D00D02B
:1003D00016E778BD00100240080001400004004804
:1003E00000080048000C00480010004800040140CC
:1003F00042694A4042617047002A01D0816100E0B1
:100400008162704701480068704700005800002072
:1004100002480068401C01490860704758000020ED
:1004200010B50648006810210843044908600320FD
:1004300000F006F800F018F8002010BD002002407F
:1004400070B5044600F024F906467D21C900FFF787
:100450008BFE054600F0BEFC00222146501E00F037
:1004600025F8002070BD000008B500BF0E48806967
:10047000012108430C49886108468069C007C00F04
:10048000009000BF00BF00221146501F00F00EF880
:1004900000220321481F00F009F800220321081F51
:1004A00000F004F808BD00000010024070B50446DA
:1004B0000D4616462946204600F004FE70BD000099
:1004C00070B504460D4600266C480068C007C00F92
:1004D000A8420ED269480068400840002843674996
:1004E000086008460068C007C00FA84201D001207C
:1004F00070BD022120680840022807D1604840688A
:10050000F0218843A16808435D4948602078C0070E
:10051000C00F00287ED06068012808D158480068C4
:10052000012149040840002821D10120E0E760684A
:10053000022808D1524800680121490608400028D5
:1005400015D10120D4E76068032808D14C48406BDE
:10055000012109040840002809D10120C8E74848C2
:10056000006802210840002801D10120C0E744486A
:100570004068800880006168084341494860FFF78F
:1005800041FF0646606801280FD107E0FFF73AFFF8
:10059000801B3C49884201D90320A9E738484068BC
:1005A0000C2108400428F1D134E0606802280FD102
:1005B00007E0FFF727FF801B3249884201D903205B
:1005C00096E72F4840680C2108400828F1D121E027
:1005D000606803280FD107E0FFF714FF801B29494B
:1005E000884201D9032083E7254840680C21084050
:1005F0000C28F1D10EE007E0FFF704FF801B214932
:10060000884201D9032073E71D4840680C21084047
:100610000028F1D119480068C007C00FA8420ED9C0
:1006200016480068400840002843144908600846FE
:100630000068C007C00FA84201D0012058E704217C
:1006400020680840042808D10D48406807210902A5
:100650008843E16808430A49486000F031F80849D6
:100660004968F02211400909074A515CC84007490E
:1006700008600320FFF7E4FE002039E70020024075
:100680000010024088130000342300085C000020A2
:1006900001480068704700005C00002000B5FFF7CB
:1006A000F7FF05494968072212021140090A034A67
:1006B000515CC84000BD0000001002404423000807
:1006C000F0B589B02FA001460EC9C06805AC0EC4B4
:1006D000089030A001460EC9C06801AC0EC4049059
:1006E0000024002600270025002000902D484468A3
:1006F0000C20204000283DD0042804D0082805D034
:100700000C2836D132E02848009036E00F208004D3
:100710002040800C05A90D5C2248C06A0007000F2C
:1007200001A90E5C0320C003204001210904884276
:1007300006D131461C48FFF717FD6843074613E012
:100740000320C00320400321C903884206D131465B
:100750001648FFF709FD6843074605E03146124891
:10076000FFF702FD68430746009706E00F48009038
:1007700003E000BF0C48009000BF00BF009809B024
:10078000F0BD000002030405060708090A0B0C0D62
:100790000E0F10100102030405060708090A0B0CCE
:1007A0000D0E0F100010024000127A00006CDC02E7
:1007B000F8B5044600252078C007C00F002872D085
:1007C000FA4840680C21084004280CD0F7484068DB
:1007D0000840082813D1F548406849030840012122
:1007E000090488420BD1F1480068012149040840FE
:1007F00000286BD06068002868D10120F8BD00BFD8
:100800006068012807D1E94800680121090408430C
:10081000E649086031E0606800280ED1E3480068CE
:10082000012109048843E149086008460068012164
:1008300089048843DD4908601FE0606805280ED1FF
:10084000DA480068012189040843D849086008464D
:100850000068012109040843D44908600DE0D34829
:100860000068012109048843D049086008460068EF
:10087000012189048843CD49086000BF60680028D1
:1008800012D0FFF7BFFD054606E0FFF7BBFD401B9A
:10089000642801D90320B1E7C44800680121490454
:1008A00008400028F1D011E0FFF7ACFD054606E056
:1008B000FFF7A8FD401B642801D903209EE7BB4831
:1008C00000680121490408400028F1D10221206874
:1008D0000840022862D1B54840680C210840002831
:1008E0000CD0B2484068084008281CD1AF48406886
:1008F000490308400121C903884214D1AB4800686C
:1009000002210840002804D0E068012801D001201D
:1009100074E7A6480068F82188432169C9000843A4
:10092000A24908603AE0E068002820D09F480068AB
:10093000012108439D490860FFF764FD054606E074
:10094000FFF760FD401B022801D9032056E79748B6
:100950000068022108400028F2D094480068F8217D
:1009600088432169C90008439049086016E08F4810
:100970000068400840008D490860FFF743FD0546C8
:1009800006E0FFF73FFD401B022801D9032035E7B1
:1009900086480068022108400028F2D1082120681A
:1009A0000840082831D1E069002817D07F48406A04
:1009B000012108437D494862FFF724FD054606E012
:1009C000FFF720FD401B022801D9032016E77748D6
:1009D000406A022108400028F2D016E07348406ABD
:1009E0004008400071494862FFF70CFD054606E0EB
:1009F000FFF708FD401B022801D90320FEE66B48E3
:100A0000406A022108400028F2D1042120680840F1
:100A1000042871D100266548C0698906084000286D
:100A20000DD100BF6148C06908436049C8610846EC
:100A3000C06909040840009000BF00BF01265C485F
:100A40000068FF2101310840002816D1584800688D
:100A5000084357490860FFF7D5FC054606E0FFF755
:100A6000D1FC401B642801D90320C7E65048006828
:100A7000FF21013108400028F1D000BFA068012803
:100A800006D14A48006A01210843484908622BE020
:100A9000A06800280CD14548006A4008400043493E
:100AA00008620846006A04218843404908621BE046
:100AB000A06805280CD13D48006A042108433B4941
:100AC00008620846006A01210843384908620BE0C1
:100AD0003648006A40084000344908620846006A07
:100AE000042188433149086200BFA068002813D060
:100AF000FFF788FC054608E029E0FFF783FC401B70
:100B00002C49884201D9032078E62848006A02214E
:100B100008400028F1D011E0FFF774FC054607E01B
:100B2000FFF770FC401B2349884201D9032065E68A
:100B30001E48006A022108400028F1D1012E05D18B
:100B40001A48C069310788431849C86100BF10219D
:100B50002068084010285FD1606901282CD1134813
:100B6000406B04210843114948630846406B01214A
:100B700008430E494863FFF745FC054606E0FFF7CA
:100B800041FC401B022801D9032037E60748406B8F
:100B9000022108400028F2D00448406BF821884325
:100BA000A169C90008430149486335E000100240CB
:100BB00000700040881300006069401D00280FD1BC
:100BC0007A48406B04218843784948630846406B63
:100BD000F8218843A169C9000843744948631BE0B0
:100BE0007248406B04210843704948630846406BD3
:100BF000400840004863FFF705FC054606E0FFF7A4
:100C000001FC401B022801D90320F7E56748406B2F
:100C1000022108400028F2D1202120680840202825
:100C200052D1624840680C2108400C280AD05F4825
:100C300040680840082811D15C48406849030840D2
:100C400088420BD15948406B012109040840002813
:100C50003AD0206A012837D00120CFE5206A002849
:100C600019D05248406B0121090408434F49486399
:100C7000FFF7C8FB054606E0FFF7C4FB401B022850
:100C800001D90320BAE54948406B01210904084015
:100C90000028F1D018E04548406B01210904884341
:100CA00042494863FFF7AEFB054606E0FFF7AAFBA3
:100CB000401B022801D90320A0E53C48406B0121DC
:100CC000090408400028F1D1606A00286CD0374838
:100CD00040680C210840082864D0606A022847D187
:100CE0003248006801210906884330490860FFF74F
:100CF00089FB054606E0FFF785FB401B022801D96A
:100D000003207BE5294800680121490608400028A6
:100D1000F1D100BF2548C06A00090001216B0843DA
:100D20002249C862A16AE06A0843204949687B22D7
:100D3000D203914308431D49486000BF084600683C
:100D400001210906084319490860FFF75BFB0546C6
:100D500006E0FFF757FB401B022801D903204DE5B1
:100D6000124800680121490608400028F1D01BE024
:100D70000E4800680121090688430C490860FFF706
:100D800041FB054606E0FFF73DFB401B022801D969
:100D9000032033E505480068012149060840002882
:100DA000F1D101E0012029E5002027E500100240F3
:100DB000042806D10649096904221143044A116135
:100DC00005E00349096904229143014A1161704712
:100DD00000E000E070B504462546681E09498842D7
:100DE00001D901200CE0681E074948610321081F52
:100DF00000F068F90020044988610720086100209C
:100E000070BD0000FFFFFF0000E000E010B50446E9
:100E1000002C01D1012010BDA069002800D000E005
:100E200000BF6920005D002805D100216820015520
:100E3000204600F02DF82421692001552068006823
:100E40004008400021680860204600F0FDFA0128B3
:100E500000D1E0E7606A002802D0204600F036FAB0
:100E6000206840680921C9028843216848602068D9
:100E700080682A21884321688860206800680121F1
:100E8000084321680860204600F098FAC3E7000094
:100E900010B586B004461249206888421DD100BFB3
:100EA0001048C0690121890408430E49C8610846F9
:100EB000C069012189040840009000BF00BF3020B4
:100EC0000190022002900120039003200490012051
:100ED000059001A90448FFF78DF906B010BD000088
:100EE000004800400010024000080048FEB50446DB
:100EF0000D4616461F46002001906920005D2028FF
:100F00006AD1002D01D0002E01D10120FEBD0121AA
:100F10000903A068884208D12069002805D1E807A4
:100F2000C00F002801D00120F0E700BF6820005D5D
:100F3000012801D10220E9E701216820015500BF05
:100F40000020E066212169200155FFF75BFA01903E
:100F5000502006535220065325E05220005B401ECD
:100F600081B2522001530097002280212046019B2C
:100F700000F084FB002801D00320C7E7012109030A
:100F8000A06888420BD12069002808D10295029DF3
:100F90002888C005C00D21680885AD1C03E02878AD
:100FA0006D1C216808855220005B0028D5DC009765
:100FB000002240212046019B00F060FB002801D068
:100FC0000320A3E720216920015500BF00216820EC
:100FD000015500BF002099E7022097E700BFFEE718
:100FE00000B587B000BF1E4840690121490408438D
:100FF0001B494861084640690121490408400190A5
:1010000000BF00BF00BF164840698900084314496B
:101010004861084640690121C9040840019000BFA9
:1010200000BF00220D2189010E48FFF7E5F90120DC
:10103000029000200390049002A90920C006FFF747
:10104000D9F80D2080010290012003900020049027
:10105000059002A90348FFF7CDF807B000BD0000D6
:10106000001002400008004810B50F480F49086002
:101070004B20C001486000210C488160C1600161C3
:101080000C21416100218161C16101620020074999
:1010900048620846FFF7BAFE002803D0DF2104A00B
:1010A00000F024FB10BD000000480040580D002057
:1010B0002E2E2F5372632F6D61696E2E6300000018
:1010C0007047000010B5002819DA1A4A03071B0FF1
:1010D000083B9B089B00D2588307DC0EFF23A340EC
:1010E0009A438B071B0E8407E40EA3401A43114B4F
:1010F0000407240F083CA408A4001A5118E00E4A63
:1011000003231B02D21883089B00D2588307DC0EEE
:10111000FF23A3409A438B071B0E8407E40EA340D2
:101120001A43054B032424021B198408A4001A51F6
:1011300010BD00001CED00E000E100E0704700BFC2
:10114000012000F038FBFBE71CB5802168460170E8
:10115000002141700125002400BF40211848FFF7FD
:1011600047F9002C0AD10125012211021448FFF78A
:1011700043F9002269021248FFF73EF97F2C0CD197
:101180000025ED430022FF2101310D48FFF734F91E
:10119000012251020A48FFF72FF96406640E6846DF
:1011A0008470FFF71BF8FF23F533052269460548D5
:1011B000FFF79CFE322000F0FEFA6019C4B2CCE7C3
:1011C00000080048580D002010B5FFF721F900F085
:1011D00004FB10BD30B591B00220049001200790AF
:1011E0001020089000200D9004A8FFF7E1FA0028D5
:1011F00003D0B32113A000F079FA0720009000205B
:1012000001900290039000216846FFF759F90028E9
:1012100003D0C0210BA000F069FAFFF739FA0546A8
:101220007D21C900FEF7A0FF0446FFF7D3FD04208F
:10123000FFF7BEFD00220321081FFFF737F911B0A9
:1012400030BD00002E2E2F5372632F6D61696E2EFC
:10125000630000001948006801210843174908602D
:101260000846406816490840144948600846006826
:1012700014490840114908600846006801218904A2
:1012800088430E490860084640683F2109048843A6
:101290000A4948600846C06A00090001C862084659
:1012A000006B09490840054908630846406B40083F
:1012B0004000486300208860704700000010024032
:1012C0000CB8FF08FFFFF6FE2CFEFCFF818CC9075F
:1012D000C90F002908D001684968012252049143CE
:1012E000826A1143026851600222416A114000295A
:1012F00007D001684968D2039143C26A114302686A
:1013000051600422416A1140002907D001684968F0
:1013100012049143026B1143026851600822416A32
:101320001140002907D00168496812039143426BBC
:101330001143026851601022416A1140002907D010
:101340000168896812029143826B114302689160BF
:101350002022416A1140002907D0016889681202E1
:101360009143C26B1143026891604022416A11406F
:10137000002915D00168496892039143026C11431A
:101380000268516001221205016C914208D1016886
:101390004968032252059143426C1143026851602F
:1013A0008022416A1140002907D001684968120370
:1013B0009143826C114302685160704738B504460E
:1013C00000250020E066FFF71DF805461B49206850
:1013D000884203D01A492068884223D120680068D7
:1013E0000821084008280BD116482B460022890402
:1013F0000090204600F042F9002801D0032038BDBB
:10140000206800680421084004280BD10D482B46B1
:10141000002209050090204600F030F9002801D094
:101420000320ECE72021692001556A20015500BF07
:1014300000216820015500BF0020E0E7003801408E
:1014400000440040FFFFFF01FEB5044600251026C2
:1014500000270020029001902169A068084361697B
:101460000843E16908430546206800687A49084056
:1014700028432168086020684068032109038843E5
:10148000E168084321684860216AA069084305466D
:10149000206880680B2109028843284321688860FE
:1014A00000BF6E492068884217D16D48006B8007E5
:1014B000800F002806D0012808D0022808D0032871
:1014C00008D101E0002607E0022605E0042603E03B
:1014D000082601E0102600BF2BE062492068884200
:1014E0001AD15F48006B032109040840002808D086
:1014F00001210904401A08D0401A08D0401A08D126
:1015000001E0002607E0022605E0042603E00826A5
:1015100001E0102600BF0CE053492068884201D149
:10152000002606E051492068884201D1002600E0EB
:10153000102600BF0121C903E069884249D1042E69
:1015400020D004DC002E07D0022E32D111E0082E6C
:1015500025D0102E2DD12DE0FFF7A0F840006168B6
:101560004908401800906168FEF7FEFD80B20290C5
:1015700023E061684A083E4BD018FEF7F5FD80B2C3
:1015800002901AE0FFF79CF8400061684908401893
:1015900000906168FEF7E8FD80B202900DE061689E
:1015A0004A0801231B04D018FEF7DEFD80B202902A
:1015B00003E000BF0120019000BF00BF2D49029849
:1015C0000840074602980007400F07432068C7609D
:1015D00040E0042E21D004DC002E07D0022E34D1AE
:1015E00011E0082E26D0102E2FD12FE0FFF756F84D
:1015F00061684908401800906168FEF7B5FD80B247
:101600002168C86025E061684A081B4BD018FEF7C6
:10161000ABFD80B22168C8601BE0FFF751F861683C
:101620004908401800906168FEF79EFD80B221686D
:10163000C8600EE061684A080123DB03D018FEF79A
:1016400093FD80B22168C86003E000BF01200190D3
:1016500000BF00BF0198FEBDF369FFEF00380140F5
:10166000001002400044004000480040004C004090
:101670000024F400F0FF000000127A00FFB581B0F2
:1016800004460D4617460A9E24E0701C002821D00F
:10169000002E05D0FEF7B6FE0499401AB04219D9C3
:1016A00020680068FF21A131884321680860206814
:1016B0008068400840002168886020216920015529
:1016C0006A20015500BF00216820015500BF03209A
:1016D00005B0F0BD2068C0692840A84201D10120B2
:1016E00000E00020B842D0D00020F1E700BFFEE7C4
:1016F00002E008C8121F08C1002AFAD170477047DB
:10170000002001E001C1121F002AFBD17047000038
:1017100070B502460B460020002116E0545C2402FE
:10172000604000240DE00125ED030540002D04D0AC
:101730004500074E7540A8B201E04504280C651C21
:10174000ACB2082CEFDB4C1CA1B29942E6DB70BDB9
:10175000211000008AB0FEF763FEFFF73BFDFFF7A4
:101760003FFCFFF781FC14220C4905A8FEF712FD8F
:10177000002105A800F039F809490860142207493A
:1017800014316846FEF706FD0021684600F02DF88A
:101790000449086000F01CF800BFFEE7542300086D
:1017A000600000206400002001460020842901D050
:1017B000CA1C1018704770B504462546002D01D08C
:1017C000294600E00121084600F090FB002070BD92
:1017D00010B500F0ADFB002010BD10B500F082FC8C
:1017E000012801D000F03EFC10BDFEB504460D46B8
:1017F0000820205EFFF7D8FF064602A80096019059
:10180000238A9AB22B462168606800F03DFC0128CB
:1018100001D00020FEBD0298FCE70000F8B50546A7
:101820000E461748076817480068001D00F092FA36
:10183000681C002808D1002E06D012480168091D36
:10184000114800F0C6FA1AE07C190E48006844609E
:10185000BC4207D20B480168091D0C48006800F023
:101860009DFA0CE007480168091D0948006800F06E
:1018700095FA08480068844201D206480460F8BD21
:10188000300000201C000020440D00202400002017
:10189000200000204C00002010B5044600F0A6FAFD
:1018A00020480068401C1F4908601F480068002845
:1018B00008D11D4804600846006801280ED100F0D8
:1018C00017F90BE019480068002807D1164800688E
:1018D000C06AE16A884201D813480460144800686D
:1018E000401C134908601349E06A0968884202D91C
:1018F0001049E06A08601422E16A51430E4A8818D0
:10190000211D00F066FA00F07FFA08480068002800
:1019100007D005480068C06AE16A884201D200F039
:10192000D9FA10BD2C0000201C0000203800002037
:101930004800002034000020680C002070B525E02D
:1019400000F02CFB14480068002801D1012000E0C1
:101950000020054600F076FC002D17D100F046FA75
:101960000D48C068C468201D00F0F4F90B480068F9
:10197000401E0A4908600A480068401E084908607D
:1019800000F042FA204600F00DF800BF044800685D
:101990000028D5D170BD0000300D00202C000020A3
:1019A0002800002010B50446206B00F041FA2046C4
:1019B00000F03EFA10BD000030B503239B0217482B
:1019C0004407640F002C05D0C01DC008C000134C94
:1019D000041B1B1B0246124C22600024104D6C603D
:1019E000D0180838C008C0000E4C206000240D4DEF
:1019F0002D686C600B4D2D682C601146441A4C60AC
:101A0000084C24680C60084D4C682C60074D4C68ED
:101A10002C600124E407064D2C6030BD68000020D6
:101A20000000002008000020100000200C00002012
:101A30001400002000BFFFF781FF03480068012861
:101A4000F9D900F047FAF6E7680C0020FFB581B03D
:101A50000F460A9E0C9C216B0398401E80000818BC
:101A600000900098C008C000009000984007400F08
:101A7000002801D1012000E00020002802D172B628
:101A800000BFFEE7002508E0795D2046343041556F
:101A9000785D002800D102E06D1C102DF4D300BF4A
:101AA000002143200155072E00D30626E662666416
:101AB0000020A064201D00F06EF92046183000F0D0
:101AC0006AF924610720801BA06164620020E06441
:101AD000002150200155049A0199009800F02AF93C
:101AE00020600B98002801D00B98046005B0F0BD71
:101AF00010B5002406E0142161430E4A881800F056
:101B00003DF9641C072CF6D30B4800F037F90B485D
:101B100000F034F90A4800F031F90A4800F02EF9D3
:101B2000094800F02BF904480849086003480849AF
:101B3000086010BD680C0020F40C0020080D002087
:101B40001C0D0020300D0020440D0020200000203E
:101B50002400002010B50146164800E00068036824
:101B60008B42FBD3024643689B188B4204D14368E7
:101B70004C681B19436001460A464B689B18046871
:101B8000A34211D10C4C03682468A34208D04B68CF
:101B9000046864681B194B6003681B680B6005E0F0
:101BA000054B1B680B6001E003680B60884200D0A6
:101BB000016010BD00000020080000200B490968EA
:101BC0000968002901D1012100E00021002904D089
:101BD0000021C943064A116006E004490968C96842
:101BE000C868034A41681160704700002000002067
:101BF0004C00002007480068401C002801D101204B
:101C000000E00020002802D172B600BFFEE772B6E5
:101C100000BFFEE718000020F8B504460020009041
:101C200000F0BCF93E480068002801D1FFF7C4FE6F
:101C30003C4800682040002861D1002C15D00834B1
:101C40006007400F002810D06007400F0821081AD5
:101C500004196007400F002801D1012000E0002096
:101C6000002802D172B600BFFEE7002C47D02E48F4
:101C70000068844243D82D4E3046056801E02E4668
:101C80002D686868A04202D228680028F7D124484D
:101C90000068854233D03068083000902868306092
:101CA0006868001B102813D92F197807400F0028E7
:101CB00001D1012000E00020002802D172B600BF4F
:101CC000FEE76868001B78606C603846FFF742FFEB
:101CD000154968680968081A1349086008460068C9
:101CE00013490968884203D20F4800681049086008
:101CF0000C4968680968084368600020286000F0A3
:101D0000A1FA00984007400F002801D1012000E00F
:101D10000020002802D172B600BFFEE70098F8BD8F
:101D200008000020140000200C000020000000200B
:101D300010000020001F01231B060360001F01602C
:101D4000001F034B03601438026020387047000006
:101D5000F51B000801460A694B68886898608B6823
:101D6000486858605068884201D1886850600020F7
:101D700008611068401E1060106870470146083105
:101D800041600021C943816001460831C1600161A1
:101D900000210160704700210161704710B50246C3
:101DA0000B685C1C002C01D1106907E0104608305C
:101DB00000E04068446824689C42FAD944684C605A
:101DC0004C68A160886041600A611468641C1460FA
:101DD00010BD42684A6093688B6093685960916057
:101DE000086103685B1C03607047000072B6054819
:101DF0000068401C03490860BFF34F8FBFF36F8F2B
:101E0000704700001800002008480068002802D130
:101E100072B600BFFEE705480068401E034908602F
:101E200008460068002800D162B6704718000020FC
:101E300070B506463546002E35D0083D2C461A4969
:101E4000606809680840002801D0012000E00020F7
:101E5000002802D172B600BFFEE72068002801D139
:101E6000012000E00020002802D172B600BFFEE78A
:101E70000D49606809680840002814D020680028CF
:101E800011D10949606809688843606000F086F8EC
:101E90000649606809684018044908602046FFF751
:101EA00059FE00F0CFF970BD140000200C00002096
:101EB00010B57D21C90005480068FEF755F9401EA0
:101EC000034948610720086110BD00005C00002044
:101ED00000E000E00120000703494860BFF34F8F96
:101EE000BFF36F8F7047000000ED00E070B504464F
:101EF0000025002C14D00D480068002801D10120D5
:101F000000E00020002802D172B600BFFEE700F01A
:101F100045F800212046FFF781FC00F093F90546C3
:101F2000002D01D1FFF7D6FF70BD00005400002046
:101F30001CB5134800210B4680220091019011A18D
:101F4000124800F0A1F80446012C0DD172B6002011
:101F5000C0430F49086001200E49086000200E4967
:101F6000086000F063F80AE0601C002801D001203E
:101F700000E00020002802D172B600BFFEE71CBDC1
:101F80005000002049444C4500000000351A00086C
:101F90004C0000203800002030000020024800687B
:101FA000401C014908607047540000201A4800682E
:101FB000002803D00120194908602CE000201749AF
:101FC00008601748016805E0002902D172B600BF19
:101FD000FEE7491E14204843124A1058002801D138
:101FE000012000E000200028EED114224A430D4BCE
:101FF000D0184268526842600246083243689342F1
:1020000002D14268526842604268D268064B1A6048
:102010000348016000BF70475400002040000020CA
:1020200034000020680C00201C00002010B50B4874
:10203000006AFF2109040843084908620846006A4B
:10204000FF210906084305490862FFF731FF002018
:1020500003490860FEF73EF8002010BD00ED00E0E7
:102060001800002010B5FEF749F8044600F04CF8BF
:10207000002803D001200007024948602046FEF7EF
:1020800041F810BD00ED00E0FFB585B01746B8007F
:10209000FFF7C2FD0646002E0BD05420FFF7BCFD13
:1020A0000446002C01D0266304E03046FFF7C0FE52
:1020B00000E00024002C10D000220F990E986B46EF
:1020C00013C303923A46089B06990598FFF7BEFC96
:1020D0002046FFF7E1FB012501E00025ED432846FE
:1020E00009B0F0BD06490968002901D1012006E0C8
:1020F00004490968002901D1022000E0002070474E
:102100003800002054000020F8B50020009042481C
:102110000068002872D141480068451C3F480560AE
:10212000002D1CD13E4800680068002801D1012024
:1021300000E00020002802D172B600BFFEE7384858
:1021400007683848006836490860364807603648EE
:102150000068401C34490860FFF730FD00BF334879
:10216000006885423DD300BF2D4800680068002804
:1021700001D1012000E00020002804D00020C0434D
:102180002A4908602CE026480068C068C468666870
:10219000B54202D22548066022E0201DFFF7DAFD95
:1021A000A06A002803D020461830FFF7D3FD20494D
:1021B000E06A0968884202D91D49E06A0860142271
:1021C000E16A51431B4A8818211DFFF702FE1A4994
:1021D000E06A0968C96A8842C6D301200090C3E753
:1021E00000BF15480068C06A1421484311490858C7
:1021F000012801D90120009005E0FFE70F480068A1
:10220000401C0E4908600E480068002801D00120DB
:1022100000900098F8BD000054000020300000201D
:102220002000002024000020440000204C0000205A
:1022300034000020680C00201C0000203C0000201E
:102240004000002070B500240026324800680028B5
:1022500002D172B600BFFEE7FFF7C8FD2D48006847
:10226000401E2C4908600846006800284DD12A48C5
:102270000068002849D022E02848C068C468204689
:102280001830FFF767FD201DFFF764FD2449E06A61
:102290000968884202D92249E06A08601422E16A8A
:1022A0005143204A8818211DFFF793FD1E49E06A1B
:1022B0000968C96A884202D301201C49086017488E
:1022C0000068002801D1012000E000200028D3D0C0
:1022D000002C01D0FFF772FC15480568002D0DD0C9
:1022E00000BFFFF711FF002802D001200F4908604E
:1022F0006D1E002DF5D100200D4908600B480068C7
:10230000002802D00126FFF7E5FDFFF77DFD3046EE
:1023100070BD0000540000202C0000201C0D002087
:1023200034000020680C00201C0000204000002029
:102330003C00002000000000000000000102030437
:1023400006070809000000000102030405800000E0
:10235000017F0000882300084911000800000000E8
:1023600000000000800000007C2300083F110008EE
:10237000FDFF000000000000800000006D61696E3C
:102380005461736B000000006D6F746F72436F6E69
:1023900074726F6C00000000B82300080000002079
:1023A00068000000F01600082024000868000020E3
:1023B000601100000017000800000000000000008D
:1023C000000000000000000000000000000000000D
:1023D000AAAAAAAA00000000000000000000000055
:1023E00000000000000000000000000000000000ED
:1023F00000000000000000000000000000000000DD
:1024000000000000000000000000000000000000CC
:102410000000000000127A00000000000000000030
:04000005080000C12E
:00000001FF
