:020000040800F2
:10000000C81100204D010008FD0A0008C50A0008BB
:1000100000000000000000000000000000000000E0
:10002000000000000000000000000000450B000878
:1000300000000000000000000B010008650B000834
:100040005F0100085F0100085F0100085F01000810
:100050005F0100085F0100085F0100085F01000800
:100060005F0100085F0100085F0100085F010008F0
:100070005F0100085F0100085F0100085F010008E0
:100080005F0100085F0100085F0100085F010008D0
:100090005F0100085F0100085F0100085F010008C0
:1000A0005F0100085F0100085F0100085F010008B0
:1000B0005F0100085F0100085F0100085F010008A0
:1000C0000348854600F078F800480047450F0008CF
:1000D000C8110020084B19680868203080F309888F
:1000E000022080F31488BFF36F8F3FBCAE4608BC7C
:1000F00004BC62B6184700001C000020EFF310801B
:1001000072B6704780F310887047EFF309800E4B8A
:100110001A6820381060F0C044464D4656465F4687
:10012000F0C008B572B601F029FA62B60CBC1168CD
:1001300008681030F0C8A046A946B246BB4680F316
:1001400009882038F0C818471C0000200448804760
:1001500004480047FEE7FEE7FEE7FEE7FEE7FEE7AE
:10016000CD0B0008C100000830B50B460146002049
:100170002022012409E00D46D5409D4205D31D46AD
:100180009540491B2546954040191546521E002DA5
:10019000F1DC30BD03460B439B0703D009E008C9DF
:1001A000121F08C0042AFAD203E00B780370401C27
:1001B000491C521EF9D27047064C0125064E05E037
:1001C000E36807CC2B430C3C98471034B442F7D378
:1001D000FFF77AFF3818000858180008F8B5002310
:1001E00093E0224601249C40A44622407ED04C68E5
:1001F000022C01D0122C0CD1DC08A40027183C6A78
:100200005D07ED0E0F26AE40B4430E69AE402643A7
:100210003E6205685E000324B4400F79A543BF0722
:10022000BF0FB7402F4307604D68012D05D0022D49
:1002300003D0112D01D0122D0ED18568CF68A543B2
:10024000B7402F43876047686546AF430D79ED0699
:10025000ED0F9D403D434560C568A5438C68B440A3
:100260002C43C4604C68E4004ED52B4CA569012694
:100270003543A561A4699D0834400094274CAD0026
:100280002F19BC689D072E0F0F25B540AC430925DB
:10029000ED06A84201D1002514E0214DA84201D16C
:1002A00001250FE01F4DA84201D102250AE01E4D95
:1002B000A84201D1032505E01C4DA84201D1042527
:1002C00000E00525B5402543BD60194C25684E6802
:1002D0009543F60300D51543256065684E68954340
:1002E000B60300D515436560A56800E00CE04E68D4
:1002F0009543F60200D51543A560E5684E68954321
:10030000B60200D51543E5605B1C0A681446DA4066
:1003100000D066E7F8BD0000001002400000014078
:100320000004004800080048000C00480010004885
:100330000004014042694A4042617047002A01D0EE
:100340008161704781627047014800687047000012
:100350005800002002480168491C016070470000F5
:100360005800002010B506480168102211430160B2
:10037000032000F007F800F017F8002010BD00007F
:100380000020024010B5044600F0D8F87D21C900D5
:10039000FFF7EAFE00F024FB00222146501E00F089
:1003A0001FF8002010BD000008B50C48816901222B
:1003B0001143816180691040002200901146501F56
:1003C00000F00EF803210022481F00F009F8032175
:1003D0000022081F00F004F808BD000000100240D1
:1003E00010B500F08DFB10BDF8B505464E480E4621
:1003F0000068C007C00FB0420AD24B4801684908E4
:100400004900314301600068C007C00FB04270D19D
:100410002878464C800705D56068F0218843A96894
:10042000084360602878C00753D06868012817D057
:10043000022818D0032819D021688907002958DA22
:1004400061688908890001436160FFF77DFF696881
:100450000746012913D002291DD0032927D034E0F3
:1004600021688903EAE721688901E7E7616BC9032D
:10047000E4E7FFF769FFC11B2D48814223D860687C
:100480000007800F0128F4D123E0FFF75DFFC11BB7
:100490002748814217D860680007800F0228F4D1EE
:1004A00017E0FFF751FFC11B214881420BD860685C
:1004B0000007800F0328F4D10BE0FFF745FFC11BB5
:1004C0001B48814201D90320F8BD60680007800FF6
:1004D000F3D115480168C907C90FB1420BD90168AA
:1004E00049084900314301600068C007C00FB042AD
:1004F00001D00120F8BD2878400706D560680721A3
:1005000009028843E9680843606000F02DF86168DB
:10051000084A0906090F515CC840074908600320D2
:10052000FFF730FF0020F8BD00200240001002401D
:1005300088130000001800085C00002001480068D3
:10054000704700005C0000200448054900684968C5
:10055000044A4905490F515CC84070475C000020BF
:10056000001002401018000830B516A30FCB89B058
:100570006C460FC417A30FCB0FC41A494A680C204E
:10058000144604401848042C05D0184B082C04D0FD
:100590000C2C00D1184609B030BD9402240F6D46D2
:1005A0002C5DC96A04AD0907090FD203695C920F7B
:1005B000022A02D0032A00D11846FFF7D5FD604376
:1005C000E9E7000002030405060708090A0B0C0D01
:1005D0000E0F10100102030405060708090A0B0C90
:1005E0000D0E0F100010024000127A00006CDC02A9
:1005F000FEB504460078F04EF04DC00748D068685C
:100600000007800F01281FD068680007800F0228AC
:1006100004D16868C003800F022815D061680129E1
:1006200019D001208004002901D0052917D029689C
:10063000B1432960296881432960606800281BD084
:10064000FFF782FE074613E02868800320D5606824
:10065000002876D01CE0286830432860EDE7296840
:1006600001432960F7E7FFF76FFEC01B642869D8D4
:1006700028688003F7D50BE0FFF766FE074604E025
:10068000FFF762FEC01B6428F1D828688003F7D406
:10069000207880073ED568680007800F14D068680E
:1006A0000007800F022804D16868C003800F01286A
:1006B0000AD0E068002828681DD00121084328607E
:1006C000FFF742FE07460BE0286880070BD5E0687D
:1006D000012836D107E0FFF737FEC01B0228C6D835
:1006E00028688007F7D52868F82188432169C90060
:1006F000084328600EE0400840002860FFF724FE11
:10070000074604E0FFF720FEC01B0228AFD8286888
:100710008007F7D42078000724D5E0690028686AAC
:1007200011D0012108436862FFF70EFE074604E07E
:10073000FFF70AFEC01B022899D8686A8007F7D520
:1007400010E036E1D1E0400840006862FFF7FCFDB0
:10075000074604E0FFF7F8FDC01B022887D8686A47
:100760008007F7D4207804274007002861DA0020AA
:100770000190E869C00008D4E969B8060143E9615D
:10078000E96901400120009101908D480168C90587
:1007900011D40168821511430160FFF7D5FD009067
:1007A00005E0FFF7D1FD0099401A642897D88448E6
:1007B0000068C005F5D5A06801280AD0002801D03E
:1007C000052811D0286A400840002862286AB843EA
:1007D00002E0286A012108432862A068002812D09C
:1007E000FFF7B2FD00900AE0286A38432862F0E77C
:1007F000FFF7AAFD0099411A7248814275D8286A0C
:100800008007F5D50DE0FFF79FFD009006E0FFF7AC
:100810009BFD0099411A6B48814266D8286A80077F
:10082000F5D40198002804D0E9690120000781432C
:10083000E9612078C00635D5606901280CD0401DDB
:10084000686B24D038436863686B40084000686375
:10085000FFF77AFD074622E0686B38436863686BF0
:10086000012108436863FFF76FFD074604E0FFF7C7
:100870006BFDC01B022838D8686B8007F7D5686B02
:10088000F8218843A169C900084368630AE0B843B6
:100890006863F4E7FFF758FDC01B022825D8686B92
:1008A0008007F7D42078800637D568680007800F66
:1008B000032813D068680007800F022804D16868F5
:1008C000C003800F032809D0206A0028686B16D067
:1008D00030436863FFF738FD06460CE0686BC003E1
:1008E0001BD5206A012864D117E05BE0FFF72CFDDF
:1008F000801B022856D8686BC003F7D50DE0B043C3
:100900006863FFF721FD064604E0FFF71DFD801B2D
:10091000022847D8686BC003F7D4606A002846D025
:1009200069680907890F022943D001263606022883
:10093000286805D0B0432860FFF706FD044633E081
:10094000B0432860FFF700FD074604E0FFF7FCFC1A
:10095000C01B022826D828688001F7D4E86A216BDA
:10096000000900010843E862A16AE06A0843696877
:100970007B22D20391430843686028683043286093
:10098000FFF7E2FC044604E0FFF7DEFC001B022850
:1009900008D828688001F7D509E0FFF7D5FC001BCF
:1009A000022801D90320FEBD28688001F5D400206B
:1009B000FEBD0120FEBD000000000100001002404D
:1009C00000700040881300000422044904280869CC
:1009D00002D09043086170471043FBE700E000E05D
:1009E000094910B5401E884201D9012010BD074CAD
:1009F00060610321081F00F083F80020A061072038
:100A00002061002010BD0000FFFFFF0000E000E0BB
:100A100070B5040005D025466035687A002802D0FC
:100A200006E0012070BD00202872204600F026F864
:100A30002420687220680168490849000160204646
:100A400000F092F90128EDD0606A002802D020461B
:100A500000F0EAF8206841680922D202914341601F
:100A6000206881682A229143816020680168012200
:100A700011430160204600F03DF970BD00B50068EB
:100A80000D4987B0884215D10C48C26901218904FB
:100A90000A43C261C06908400590302000900220DE
:100AA00001210190032002910491039069460448BA
:100AB000FFF794FB07B000BD004800400010024063
:100AC00000080048FEE7000010B50B480949016026
:100AD000E121490241600021C16001618161C16180
:100AE0000C22016242614162FFF792FF002800D0B0
:100AF000FEE710BD00480040540D00207047000084
:100B00008307FF22DB0E9A408907090E99400028CF
:100B10000BDA0007000F0838830808489B001818F4
:100B2000C36993430B43C3617047830804489B0028
:100B30001B181868904308431860704700ED00E0E8
:100B400000E400E0704700007D24054DE4002046ED
:100B500000F036FA40212846FFF7ECFBF7E70000EB
:100B60000008004810B5FFF7F5FB00F036FA10BD9D
:100B700010B592B0022000900120039000241020B4
:100B8000099404906846FFF733FD002800D0FEE783
:100B900007200D900E940F94002110940DA8FFF7DC
:100BA00023FC002800D0FEE7FFF7C8FC7D21C90028
:100BB000FFF7DAFAFFF714FF0420FFF705FF032120
:100BC0000022081FFFF70CFC12B010BD124801688C
:100BD0000122114301604168104A114041600168DF
:100BE0000F4A1140016001680122920491430160A3
:100BF00041683F22120491434160C16A0909090119
:100C0000C162016B074A11400163416B4908490009
:100C10004163002181607047001002400CB8FF085A
:100C2000FFFFF6FE2CFEFCFF10B5818CC90707D034
:100C300001684A6801235B049A43836A1A434A6045
:100C4000818C890707D501684A6801231B049A43F0
:100C5000C36A1A434A60818C490707D501684A680C
:100C600001239B049A43036B1A434A60818C090752
:100C700007D501684A680123DB039A43436B1A4393
:100C80004A60818CC90607D50268916801231B035D
:100C90009943836B19439160818C890607D501685C
:100CA0008A6801235B039A43C36B1A438A60818C71
:100CB000490612D503685A6801210905046C8A4364
:100CC00022435A60026C8A4207D1026851680323AA
:100CD0005B059943436C19435160818C090607D524
:100CE00001684A680123DB04806C9A4302434A602E
:100CF00010BD0000F8B500260446C666FFF724FBC9
:100D0000054616492068884202D0154988421DD1FF
:100D10000068144F000709D501212B460022490520
:100D20002046009700F0CEF800280DD1206800681A
:100D300040070BD501212B4600228905204600974C
:100D400000F0C0F8002801D00320F8BD2020603456
:100D50006072A07226720020F8BD000000380140C9
:100D600000440040FFFFFF01F8B504462369A26874
:100D7000E5691A43636910202B43002125681A4353
:100D80002B680E46474F3B4013432B6023685A683D
:100D900003252D03AA43E5682A435A60236AA26902
:100DA00025681A43AB680B273F02BB431343AB6074
:100DB0003D4F25683D4B0203BD420AD11B6B9B078B
:100DC0009B0F20D0012B14D0022B14D0032B1BD14E
:100DD0000DE0374FBD4210D11B6B03273F043B4052
:100DE00011D09B1A05D09B1A05D093420CD102203A
:100DF0000AE0042008E0082006E02E4B9D4202D0C5
:100E00002D4B9D4200D100200123E769DB039F4267
:100E100022D100280CD002280DD0042813D0082895
:100E200017D001260A0912010807400F10432EE0CF
:100E3000FFF78AFB09E06168204A48088018FFF73D
:100E400093F981B2EEE7FFF78FFB616840004A0833
:100E5000F4E761684808F1E7002808D0022809D0C3
:100E600004280CD0082815D001263046F8BDFFF71D
:100E70006BFB06E06168124A480880180DE0FFF736
:100E800073FB61684A088018FFF76EF980B2216829
:100E9000C860EAE761684808C018FFF765F980B2E2
:100EA000E860E2E7F369FFEF00380140001002401C
:100EB0000044004000480040004C00400024F40082
:100EC00000127A00FFB581B017460E4604460A9D0F
:100ED0001DE0681C1BD0002D05D0FFF735FA0499E2
:100EE000401AA84213D920680168FF22A132914319
:100EF00001602068816849084900816020206034D1
:100F00006072A07200202072032005B0F0BD20683E
:100F1000C1693046884304D00020B842D9D00020AF
:100F2000F3E70120F9E702E008C8121F08C1002A10
:100F3000FAD170477047002001E001C1121F002A5A
:100F4000FBD170478CB0FFF70DFAFFF711FE154883
:100F500042690121C9040A4342614069124C0840B8
:100F60000A90002240212046FFF7E8F94020009037
:100F70000021012002910391019069462046FFF76C
:100F80002DF9FFF7A1FD1422084905A8FFF702F982
:100F9000002105A800F029F80549086000F018F8BC
:100FA000FEE7000000100240000800481818000882
:100FB0006000002001460020842900D0C81C704732
:100FC00010B5002800D1012000F092FA002010BDD9
:100FD00010B500F0A5FA002010BD10B500F04CFBD4
:100FE000012801D000F00EFB10BD3EB504460820DC
:100FF0000D46205EFFF7DEFF02A901910090208AD6
:101000002B4682B22168606800F00EFB012801D0F7
:1010100000203EBD02983EBDF8B5134C0F46E66871
:1010200005462068001D00F0C5F9681C07D1002F97
:1010300005D021680D48091D00F0F4F9F8BD2068BD
:10104000751945602168B54204D2A06B091D00F0F6
:10105000D1F9F8BD606B091D00F0CCF9A06A85429A
:10106000F7D2A562F8BD00001C000020400D002052
:10107000F8B5054600F0E2F9294CA068401CA060D4
:101080002068284F002803D06069002827D02CE072
:101090002560A068012828D1002614207043C019BB
:1010A00000F09AF9761C072EF7D31E488C3000F01A
:1010B00093F91C48A03000F08FF91A48B43000F0C2
:1010C0008BF91848C83000F087F91648DC3000F07A
:1010D00083F914488C3060631430A06305E0206805
:1010E000E96AC06A884200D82560606A401C606274
:1010F000E86A2169884200D9206114214843C01957
:10110000291D00F08FF900F0A5F96069002806D0CC
:101110002068E96AC06A884201D200F0DDF9F8BDB2
:101120001C000020640C002070B5114E114C18E01A
:1011300000F01CFA3068002817D000F00BFB00F01C
:101140007DF9F068C568281D00F034F9A068401EDC
:10115000A0606068401E606000F07CF9284600F0E6
:101160000BF860680028E3D170BD00F0F3FAF8E7EF
:101170002C0D00201C00002010B50446006B00F070
:1011800077F9204600F074F910BD000003210E48E5
:101190008902420705D0C01DC0080B4AC000821A50
:1011A000891A0A4A0023411809C20839C908C90026
:1011B000183A11604B600B600B1A0AC09360012053
:1011C000C0075360D060704764000020100000200A
:1011D000044CFFF7A9FF20680128FAD900F07CF938
:1011E000F7E70000640C0020FFB581B00C9C900074
:1011F000236B001F1818C6080A9DF600700701D05F
:1012000072B6FEE723180A5C20331A750A5C002ABE
:1012100002D0401C1028F5D3204640300027009013
:10122000C770072D00D30625E562A764201D6564FD
:1012300000F0DDF82046183000F0D9F824610720CE
:10124000401B6462A061E764009807743046049A0A
:10125000019900F09FF820600B98002800D00460EE
:1012600005B0F0BD30B5114900E011460A68824270
:10127000FBD34B685C18844203D14068181848605F
:10128000084643681C18944209D1084C103C246855
:10129000A24209D052689A1842600A681268026035
:1012A000814200D0086030BD0460F9E710000020E2
:1012B0000648416B0968002905D0416BC968C968B7
:1012C0004968816270470021C943FAE71C00002089
:1012D00003480068401C72B600D0FEE7FEE700003D
:1012E00018000020F8B50546002700F03FF9284E09
:1012F0003068002801D1FFF749FFF06805423FD16F
:10130000002D3DD00835680708D06807400F082138
:10131000081A4519680701D072B6FEE7002D2FD0D4
:10132000706885422CD81A48103001460C6801E0DC
:1013300020460C466168A94202D221680029F7D1F3
:1013400031688C421CD007682168016060680837EA
:10135000411B102908D96019420701D072B6FEE777
:1013600041606560FFF77EFF61687068401A7060D9
:10137000B268904200D2B060F0680143002003C41C
:1013800000F0E8F9780701D072B6FEE73846F8BDFC
:101390000000002010B50124031F24061C601B1F41
:1013A0001960191F024B0B60143940380A6010BDD8
:1013B000D11200084368826801699A6083684268B4
:1013C0005A604A68824201D182684A600022026102
:1013D0000868401E086070470146083100224160DD
:1013E000D243C16082600161002101607047002129
:1013F0000161704730B50B685A1C02D002460832B2
:1014000002E0026904E02246546825689D42FAD948
:1014100053684B6099608A60516008610168491C9B
:10142000016030BD42684A6093688B609368596080
:10143000916008610168491C0160704772B60448F8
:101440000168491C0160BFF34F8FBFF36F8F704776
:101450001800002005490868002804D0401E0860D4
:1014600000D162B6704772B6FEE700001800002097
:1014700070B500281AD004460D4D083C6068E96834
:10148000084201D172B6FEE72268002A01D072B686
:10149000FEE78843606000F069F86068696840189A
:1014A00068602046FFF7DEFE00F054F970BD0000D2
:1014B0000000002010B506487D21C9000068FEF735
:1014C00053FE0449401E48610720086110BD00001A
:1014D0005C00002000E000E00120044900074860B3
:1014E000BFF34F8FBFF36F8F7047000000ED00E038
:1014F00010B502000FD00948006B002801D072B669
:10150000FEE700F033F800211046FFF785FD00F0FC
:1015100021F9002801D1FFF7DFFF10BD1C000020DA
:101520001CB50E4800240190234680220CA1009493
:101530000D4800F079F8012803D0401C0CD172B698
:10154000FEE772B600210548C9432C3881620121AB
:101550004161C46000F03EF81CBD0000480000205E
:1015600049444C4500000000D11100080248016BBD
:10157000491C0163704700001C00002010B513488F
:10158000016B002902D00121C16110BD0021C161A0
:1015900001690F4A02E0002915D0491E14234B436C
:1015A000D358002BF7D014234B439A185368144692
:1015B0005B6808345360A34201D15B685360DA680A
:1015C0000260016110BD72B6FEE700001C00002041
:1015D000640C002010B50948016AFF22120411436F
:1015E0000162016A120211430162FFF763FF0449BD
:1015F00000200860FEF76EFD002010BD00ED00E049
:101600001800002010B5FEF779FD044600F044F8FC
:10161000002803D001200349000748602046FEF758
:1016200071FD10BD00ED00E0FFB585B016469000DD
:101630000F9FFFF757FE05001AD05420FFF752FE08
:10164000040012D0256300210E98039101970090A9
:1016500002943246089B06990598FFF7C5FD20467F
:10166000FFF706FD012009B0F0BD2846FFF700FF97
:101670000020C043F7E7000006484169002904D074
:10168000006B002803D00020704701207047022023
:10169000704700001C000020F8B52C4C0027206B80
:1016A000002808D0A069401CA061E069002800D093
:1016B00001273846F8BDE668761CE6600ED1606BFF
:1016C0000068002801D072B6FEE7606BA16B616311
:1016D000A063206A401C2062FFF7EAFDA06A8642F0
:1016E0000AD3606B0068002810D0606BC068C568C2
:1016F000686886420DD2A06220681421C06A4843FF
:10170000134908580128D0D90127CEE70020C0434B
:10171000F1E7281DFFF74EFEA86A002803D02846EF
:101720001830FFF747FEE86A2169884200D9206136
:101730001421484306494018291DFFF773FEE86A43
:101740002168C96A8842CCD30127CAE71C0000205F
:10175000640C0020F8B5284C0025206B2E4600288C
:1017600008D0FFF76BFE206B401E2063206B002823
:1017700002D03DE072B6FEE7A168204F00291DD1DE
:1017800036E0F868C56828461830FFF713FE281DB4
:10179000FFF710FEE86A2169884200D92061142110
:1017A00048431649B4394018291DFFF73BFEE86A43
:1017B0002168C96A884201D30120E06138680028A5
:1017C000DFD1002D01D0FFF773FDA569002D09D0F1
:1017D0000127FFF761FF002800D0E7616D1EF8D1F7
:1017E0000020A061E069002802D00126FFF774FE06
:1017F000FFF730FE3046F8BD1C000020180D002019
:1018000000000000000000000102030406070809B0
:1018100000000000010203042C180008490B000816
:1018200000000000000000008000000064656661A8
:10183000756C745461736B00581800080000002028
:1018400064000000260F0008BC1800086400002097
:1018500064110000360F00080000000000000000C6
:101860000000000000000000000000000000000078
:10187000AAAAAAAA000000000000000000000000C0
:101880000000000000000000000000000000000058
:101890000000000000000000000000000000000048
:1018A0000000000000000000000000000000000038
:0C18B0000000000000127A0000000000A0
:04000005080000C12E
:00000001FF
